{
  "contractName": "OrgBallot",
  "abi": [
    {
      "constant": true,
      "inputs": [
        {
          "name": "",
          "type": "uint256"
        }
      ],
      "name": "proposals",
      "outputs": [
        {
          "name": "",
          "type": "bytes32"
        }
      ],
      "payable": false,
      "stateMutability": "view",
      "type": "function"
    },
    {
      "constant": true,
      "inputs": [
        {
          "name": "",
          "type": "address"
        }
      ],
      "name": "votesCastByTokenHolders",
      "outputs": [
        {
          "name": "",
          "type": "uint256"
        }
      ],
      "payable": false,
      "stateMutability": "view",
      "type": "function"
    },
    {
      "constant": true,
      "inputs": [
        {
          "name": "",
          "type": "bytes32"
        }
      ],
      "name": "votesReceivedByProposals",
      "outputs": [
        {
          "name": "",
          "type": "uint256"
        }
      ],
      "payable": false,
      "stateMutability": "view",
      "type": "function"
    },
    {
      "constant": true,
      "inputs": [],
      "name": "token",
      "outputs": [
        {
          "name": "",
          "type": "address"
        }
      ],
      "payable": false,
      "stateMutability": "view",
      "type": "function"
    },
    {
      "inputs": [
        {
          "name": "_token",
          "type": "address"
        },
        {
          "name": "_proposals",
          "type": "bytes32[]"
        }
      ],
      "payable": false,
      "stateMutability": "nonpayable",
      "type": "constructor"
    },
    {
      "anonymous": false,
      "inputs": [
        {
          "indexed": true,
          "name": "voter",
          "type": "address"
        },
        {
          "indexed": true,
          "name": "proposal",
          "type": "bytes32"
        },
        {
          "indexed": false,
          "name": "votes",
          "type": "uint256"
        }
      ],
      "name": "VotesCasted",
      "type": "event"
    },
    {
      "constant": false,
      "inputs": [
        {
          "name": "proposal",
          "type": "bytes32"
        },
        {
          "name": "tokenWeightedVotes",
          "type": "uint256"
        }
      ],
      "name": "vote",
      "outputs": [],
      "payable": false,
      "stateMutability": "nonpayable",
      "type": "function"
    },
    {
      "constant": true,
      "inputs": [],
      "name": "getAllProposals",
      "outputs": [
        {
          "name": "",
          "type": "bytes32[]"
        }
      ],
      "payable": false,
      "stateMutability": "view",
      "type": "function"
    }
  ],
  "bytecode": "0x6060604052341561000f57600080fd5b60405161078e38038061078e83398101604052808051906020019091908051820191905050816000806101000a81548173ffffffffffffffffffffffffffffffffffffffff021916908373ffffffffffffffffffffffffffffffffffffffff160217905550806001908051906020019061008a929190610092565b50505061010a565b8280548282559060005260206000209081019282156100d4579160200282015b828111156100d35782518290600019169055916020019190600101906100b2565b5b5090506100e191906100e5565b5090565b61010791905b808211156101035760008160009055506001016100eb565b5090565b90565b610675806101196000396000f300606060405260043610610078576000357c0100000000000000000000000000000000000000000000000000000000900463ffffffff168063013cf08b1461007d578063882b27d1146100bc5780639ef1204c14610109578063cceb68f514610139578063e1320072146101a3578063fc0c546a146101de575b600080fd5b341561008857600080fd5b61009e6004808035906020019091905050610233565b60405180826000191660001916815260200191505060405180910390f35b34156100c757600080fd5b6100f3600480803573ffffffffffffffffffffffffffffffffffffffff16906020019091905050610257565b6040518082815260200191505060405180910390f35b341561011457600080fd5b61013760048080356000191690602001909190803590602001909190505061026f565b005b341561014457600080fd5b61014c6104fb565b6040518080602001828103825283818151815260200191508051906020019060200280838360005b8381101561018f578082015181840152602081019050610174565b505050509050019250505060405180910390f35b34156101ae57600080fd5b6101c860048080356000191690602001909190505061055d565b6040518082815260200191505060405180910390f35b34156101e957600080fd5b6101f1610575565b604051808273ffffffffffffffffffffffffffffffffffffffff1673ffffffffffffffffffffffffffffffffffffffff16815260200191505060405180910390f35b60018181548110151561024257fe5b90600052602060002090016000915090505481565b60026020528060005260406000206000915090505481565b600080600061027e858561059a565b60008411151561028d57600080fd5b6001151561029a8661059e565b15151415156102a857600080fd5b6000809054906101000a900473ffffffffffffffffffffffffffffffffffffffff1673ffffffffffffffffffffffffffffffffffffffff166370a08231336000604051602001526040518263ffffffff167c0100000000000000000000000000000000000000000000000000000000028152600401808273ffffffffffffffffffffffffffffffffffffffff1673ffffffffffffffffffffffffffffffffffffffff168152602001915050602060405180830381600087803b151561036c57600080fd5b6102c65a03f1151561037d57600080fd5b50505060405180519050925060008311151561039857600080fd5b600260003373ffffffffffffffffffffffffffffffffffffffff1673ffffffffffffffffffffffffffffffffffffffff1681526020019081526020016000205491506103ed82846105fe90919063ffffffff16565b90508381101515156103fe57600080fd5b610411848361061790919063ffffffff16565b600260003373ffffffffffffffffffffffffffffffffffffffff1673ffffffffffffffffffffffffffffffffffffffff16815260200190815260200160002081905550610482846003600088600019166000191681526020019081526020016000205461061790919063ffffffff16565b6003600087600019166000191681526020019081526020016000208190555084600019163373ffffffffffffffffffffffffffffffffffffffff167f56807064a7e535bd197acf2bca487109c31b0465f9a535d4384b29e4b0a3424c866040518082815260200191505060405180910390a35050505050565b610503610635565b600180548060200260200160405190810160405280929190818152602001828054801561055357602002820191906000526020600020905b8154600019168152602001906001019080831161053b575b5050505050905090565b60036020528060005260406000206000915090505481565b6000809054906101000a900473ffffffffffffffffffffffffffffffffffffffff1681565b5050565b600080600090505b6001805490508110156105f35782600019166001828154811015156105c757fe5b9060005260206000209001546000191614156105e657600191506105f8565b80806001019150506105a6565b600091505b50919050565b600082821115151561060c57fe5b818303905092915050565b600080828401905083811015151561062b57fe5b8091505092915050565b6020604051908101604052806000815250905600a165627a7a72305820edd13ce87dc1dc2bcff5d8bec6afc70c5ab5c8aa549e3eb12ccd85eef45b18b00029",
  "source": "pragma solidity ^0.4.18;\n\nimport \"zeppelin-solidity/contracts/math/SafeMath.sol\";\n\nimport \"./OrgToken.sol\";\n\n/**\n * @title OrgBallot\n * @dev OrgWeightedVoting is a contract for conduting a voting \n * to elect officers to board, \n * \n */ \n\ncontract OrgBallot {\n\n    using SafeMath for uint256;\n\n    OrgToken public token;\n\n    bytes32[] public proposals;\n\n    mapping (address => uint256 ) public votesCastByTokenHolders; \n\n    mapping (bytes32 => uint256 ) public votesReceivedByProposals;\n\n    event VotesCasted(address indexed voter, bytes32 indexed proposal, uint256 votes);\n\n\n    function OrgBallot(OrgToken _token, bytes32[] _proposals) public {\n        token = _token;\n        proposals = _proposals;\n    } \n   \n    function vote(bytes32 proposal, uint256 tokenWeightedVotes) public {\n\n        _validateVote(proposal,tokenWeightedVotes);\n        \n        require(tokenWeightedVotes > 0);\n  \n        require(isProposalKnown(proposal) == true);\n\n        uint256 totalWeight = token.balanceOf(msg.sender);\n        require(totalWeight > 0);\n\n        uint256 votesCast = votesCastByTokenHolders[msg.sender];\n        uint256 availableVotes = totalWeight.sub(votesCast);\n   \n        require(availableVotes >= tokenWeightedVotes);\n\n\n        votesCastByTokenHolders[msg.sender] = votesCast.add(tokenWeightedVotes);\n        votesReceivedByProposals[proposal] = votesReceivedByProposals[proposal].add(tokenWeightedVotes);\n       \n        VotesCasted(msg.sender, proposal, tokenWeightedVotes);\n    }\n    //Override    \n    function _validateVote(bytes32 proposal, uint256 tokenWeightedVotes) internal {\n    \n    }\n\n    function getAllProposals() public view returns(bytes32[]){\n        return proposals;\n    }\n\n    function isProposalKnown(bytes32 proposal) private view returns(bool) {\n        for(uint256 index = 0; index < proposals.length; index++){\n            if(proposals[index] == proposal){\n                return true;\n            }\n        }\n        return false;\n    }    \n}",
  "sourcePath": "/headless/Documents/blockchainwork/org/contracts/OrgBallot.sol",
  "compiler": {
    "name": "solc",
    "version": "0.4.19+commit.c4cbbb05.Emscripten.clang"
  },
  "schemaVersion": "2.0.0",
  "updatedAt": "2018-03-27T21:28:22.888Z"
}