{
  "contractName": "TimedOrgBallot",
  "abi": [
    {
      "constant": true,
      "inputs": [
        {
          "name": "",
          "type": "uint256"
        }
      ],
      "name": "proposals",
      "outputs": [
        {
          "name": "",
          "type": "bytes32"
        }
      ],
      "payable": false,
      "stateMutability": "view",
      "type": "function"
    },
    {
      "constant": true,
      "inputs": [],
      "name": "closingTime",
      "outputs": [
        {
          "name": "",
          "type": "uint256"
        }
      ],
      "payable": false,
      "stateMutability": "view",
      "type": "function"
    },
    {
      "constant": true,
      "inputs": [
        {
          "name": "",
          "type": "address"
        }
      ],
      "name": "votesCastByTokenHolders",
      "outputs": [
        {
          "name": "",
          "type": "uint256"
        }
      ],
      "payable": false,
      "stateMutability": "view",
      "type": "function"
    },
    {
      "constant": false,
      "inputs": [
        {
          "name": "proposal",
          "type": "bytes32"
        },
        {
          "name": "tokenWeightedVotes",
          "type": "uint256"
        }
      ],
      "name": "vote",
      "outputs": [],
      "payable": false,
      "stateMutability": "nonpayable",
      "type": "function"
    },
    {
      "constant": true,
      "inputs": [],
      "name": "openingTime",
      "outputs": [
        {
          "name": "",
          "type": "uint256"
        }
      ],
      "payable": false,
      "stateMutability": "view",
      "type": "function"
    },
    {
      "constant": true,
      "inputs": [],
      "name": "getAllProposals",
      "outputs": [
        {
          "name": "",
          "type": "bytes32[]"
        }
      ],
      "payable": false,
      "stateMutability": "view",
      "type": "function"
    },
    {
      "constant": true,
      "inputs": [
        {
          "name": "",
          "type": "bytes32"
        }
      ],
      "name": "votesReceivedByProposals",
      "outputs": [
        {
          "name": "",
          "type": "uint256"
        }
      ],
      "payable": false,
      "stateMutability": "view",
      "type": "function"
    },
    {
      "constant": true,
      "inputs": [],
      "name": "token",
      "outputs": [
        {
          "name": "",
          "type": "address"
        }
      ],
      "payable": false,
      "stateMutability": "view",
      "type": "function"
    },
    {
      "inputs": [
        {
          "name": "_token",
          "type": "address"
        },
        {
          "name": "_proposals",
          "type": "bytes32[]"
        },
        {
          "name": "_openingTime",
          "type": "uint256"
        },
        {
          "name": "_closingTime",
          "type": "uint256"
        }
      ],
      "payable": false,
      "stateMutability": "nonpayable",
      "type": "constructor"
    },
    {
      "anonymous": false,
      "inputs": [
        {
          "indexed": true,
          "name": "voter",
          "type": "address"
        },
        {
          "indexed": true,
          "name": "proposal",
          "type": "bytes32"
        },
        {
          "indexed": false,
          "name": "votes",
          "type": "uint256"
        }
      ],
      "name": "VotesCasted",
      "type": "event"
    },
    {
      "constant": true,
      "inputs": [],
      "name": "hasClosed",
      "outputs": [
        {
          "name": "",
          "type": "bool"
        }
      ],
      "payable": false,
      "stateMutability": "view",
      "type": "function"
    }
  ],
  "bytecode": "0x6060604052341561000f57600080fd5b60405161089c38038061089c833981016040528080519060200190919080518201919060200180519060200190919080519060200190919050508383816000806101000a81548173ffffffffffffffffffffffffffffffffffffffff021916908373ffffffffffffffffffffffffffffffffffffffff16021790555080600190805190602001906100a19291906100bb565b505050816004819055508060058190555050505050610133565b8280548282559060005260206000209081019282156100fd579160200282015b828111156100fc5782518290600019169055916020019190600101906100db565b5b50905061010a919061010e565b5090565b61013091905b8082111561012c576000816000905550600101610114565b5090565b90565b61075a806101426000396000f300606060405260043610610099576000357c0100000000000000000000000000000000000000000000000000000000900463ffffffff168063013cf08b1461009e5780631515bc2b146100dd5780634b6753bc1461010a578063882b27d1146101335780639ef1204c14610180578063b7a8807c146101b0578063cceb68f5146101d9578063e132007214610243578063fc0c546a1461027e575b600080fd5b34156100a957600080fd5b6100bf60048080359060200190919050506102d3565b60405180826000191660001916815260200191505060405180910390f35b34156100e857600080fd5b6100f06102f7565b604051808215151515815260200191505060405180910390f35b341561011557600080fd5b61011d610303565b6040518082815260200191505060405180910390f35b341561013e57600080fd5b61016a600480803573ffffffffffffffffffffffffffffffffffffffff16906020019091905050610309565b6040518082815260200191505060405180910390f35b341561018b57600080fd5b6101ae600480803560001916906020019091908035906020019091905050610321565b005b34156101bb57600080fd5b6101c36105ad565b6040518082815260200191505060405180910390f35b34156101e457600080fd5b6101ec6105b3565b6040518080602001828103825283818151815260200191508051906020019060200280838360005b8381101561022f578082015181840152602081019050610214565b505050509050019250505060405180910390f35b341561024e57600080fd5b610268600480803560001916906020019091905050610615565b6040518082815260200191505060405180910390f35b341561028957600080fd5b61029161062d565b604051808273ffffffffffffffffffffffffffffffffffffffff1673ffffffffffffffffffffffffffffffffffffffff16815260200191505060405180910390f35b6001818154811015156102e257fe5b90600052602060002090016000915090505481565b60006005544211905090565b60055481565b60026020528060005260406000206000915090505481565b60008060006103308585610652565b60008411151561033f57600080fd5b6001151561034c8661067f565b151514151561035a57600080fd5b6000809054906101000a900473ffffffffffffffffffffffffffffffffffffffff1673ffffffffffffffffffffffffffffffffffffffff166370a08231336000604051602001526040518263ffffffff167c0100000000000000000000000000000000000000000000000000000000028152600401808273ffffffffffffffffffffffffffffffffffffffff1673ffffffffffffffffffffffffffffffffffffffff168152602001915050602060405180830381600087803b151561041e57600080fd5b6102c65a03f1151561042f57600080fd5b50505060405180519050925060008311151561044a57600080fd5b600260003373ffffffffffffffffffffffffffffffffffffffff1673ffffffffffffffffffffffffffffffffffffffff16815260200190815260200160002054915061049f82846106df90919063ffffffff16565b90508381101515156104b057600080fd5b6104c384836106f890919063ffffffff16565b600260003373ffffffffffffffffffffffffffffffffffffffff1673ffffffffffffffffffffffffffffffffffffffff1681526020019081526020016000208190555061053484600360008860001916600019168152602001908152602001600020546106f890919063ffffffff16565b6003600087600019166000191681526020019081526020016000208190555084600019163373ffffffffffffffffffffffffffffffffffffffff167f56807064a7e535bd197acf2bca487109c31b0465f9a535d4384b29e4b0a3424c866040518082815260200191505060405180910390a35050505050565b60045481565b6105bb61071a565b600180548060200260200160405190810160405280929190818152602001828054801561060b57602002820191906000526020600020905b815460001916815260200190600101908083116105f3575b5050505050905090565b60036020528060005260406000206000915090505481565b6000809054906101000a900473ffffffffffffffffffffffffffffffffffffffff1681565b600454421015801561066657506005544211155b151561067157600080fd5b61067b8282610716565b5050565b600080600090505b6001805490508110156106d45782600019166001828154811015156106a857fe5b9060005260206000209001546000191614156106c757600191506106d9565b8080600101915050610687565b600091505b50919050565b60008282111515156106ed57fe5b818303905092915050565b600080828401905083811015151561070c57fe5b8091505092915050565b5050565b6020604051908101604052806000815250905600a165627a7a7230582067bd3cff5807599672e2e63b19dad2afa8d583f3eaa265b7701c050ea0a6d12a0029",
  "source": "pragma solidity ^0.4.18;\n\nimport \"./OrgBallot.sol\";\n\n/**\n * @title TimedOrgBallot\n * @dev TimedOrgBallot is a contract for conduting a voting within a schedule\n * \n * \n */ \n\ncontract TimedOrgBallot is OrgBallot  {\n\n    uint256 public openingTime;\n    uint256 public closingTime;\n\n    modifier votingOpen {\n        require(now >= openingTime && now <= closingTime);\n        _;\n    }\n    \n    function TimedOrgBallot(\n        OrgToken _token,\n        bytes32[] _proposals,\n        uint256 _openingTime,\n        uint256 _closingTime\n    ) \n        public \n        OrgBallot(_token,_proposals)\n    {\n        openingTime = _openingTime;\n        closingTime = _closingTime;\n    } \n   \n    function hasClosed() public view returns (bool) {\n        return now > closingTime;\n    }\n\n    function _validateVote(bytes32 proposal, uint256 tokenWeightedVotes) internal votingOpen {\n        super._validateVote(proposal, tokenWeightedVotes); \n    }\n}",
  "sourcePath": "/headless/Documents/blockchainwork/org/contracts/TimedOrgBallot.sol",
  "compiler": {
    "name": "solc",
    "version": "0.4.19+commit.c4cbbb05.Emscripten.clang"
  },
  "schemaVersion": "2.0.0",
  "updatedAt": "2018-03-24T05:20:34.247Z"
}